:020000040800F2
:10000000A806002089010008A517000809170008A4
:10001000A117000879030008B717000800000000C6
:10002000000000000000000000000000AB17000806
:100030007D03000800000000A9170008AD170008A4
:10004000A3010008A3010008A3010008A301000800
:10005000A3010008A3010008A3010008A3010008F0
:10006000A3010008A3010008A3010008A3010008E0
:10007000A3010008A3010008A3010008A3010008D0
:10008000A3010008A3010008A3010008A3010008C0
:10009000A3010008A3010008A3010008A3010008B0
:1000A000A3010008A3010008A3010008A3010008A0
:1000B000A3010008A3010008A3010008A301000890
:1000C000A3010008A3010008A3010008A301000880
:1000D000A3010008A3010008A3010008A301000870
:1000E000A3010008A3010008A301000800F002F822
:1000F00000F03AF80AA090E8000C82448344AAF188
:100100000107DA4501D100F02FF8AFF2090EBAE885
:100110000F0013F0010F18BFFB1A43F0010318473B
:10012000341D0000541D0000103A24BF78C878C167
:10013000FAD8520724BF30C830C144BF04680C60ED
:10014000704700000023002400250026103A28BF35
:1001500078C1FBD8520728BF30C148BF0B60704739
:100160001FB51FBD10B510BD00F058F81146FFF7C0
:10017000F7FF01F095FB00F076F803B4FFF7F2FF0C
:1001800003BC00F07BF8000009488047094800479D
:10019000FEE7FEE7FEE7FEE7FEE7FEE7FEE7FEE737
:1001A000FEE7FEE704480549054A064B7047000094
:1001B000B5170008ED000008A8000020A8060020E0
:1001C000A8020020A80200204FF0000200B513464C
:1001D00094469646203922BFA0E80C50A0E80C5067
:1001E000B1F12001BFF4F7AF090728BFA0E80C5018
:1001F00048BF0CC05DF804EB890028BF40F8042B11
:1002000008BF704748BF20F8022B11F0804F18BF7D
:1002100000F8012B7047704770477047754600F033
:1002200029F8AE4605006946534620F0070085468A
:1002300018B020B5FFF7B6FFBDE820404FF000062C
:100240004FF000074FF000084FF0000B21F00701BE
:10025000AC46ACE8C009ACE8C009ACE8C009ACE801
:10026000C0098D4670470446AFF300802046FFF773
:1002700084FF000000487047480000200149182012
:10028000ABBEFEE726000200704770B504460025AD
:100290002068806800F0010018B32068806820F0B2
:1002A00001002168886000F0F7FC054613E000F0CB
:1002B000F3FC401B02280ED92068806800F0010082
:1002C00048B1A06A40F01000A062E06A40F001006E
:1002D000E062012070BD2068806800F00100002805
:1002E000E5D10020F6E7000038B5044600250020DF
:1002F00000902068806800F0010078BB206880686A
:1003000040F0010021688860194800681949B0FB75
:10031000F1F0009002E00098401E00900098002844
:10032000F9D100F0B9FC054619E000F0B5FC401B1E
:10033000022814D92068806800F0010078B9A06A0A
:1003400040F01000A062E06A40F00100E06200BFEF
:10035000002084F8240000BF012038BD05E020689B
:10036000806800F001000028DFD00020F5E70000E1
:100370001400002040420F0000BFFEE7704772B635
:1003800000BFFEE738B5024600230020009000BF02
:1003900092F82400012801D1022038BD012082F802
:1003A000240000BF4868072812D21068406B0C79FF
:1003B000641E04EB84051F24AC40A0430D796D1E20
:1003C00005EB85050C68AC4020431468606327E0AA
:1003D00048680D2812D21068006B0C79E41F04EBFA
:1003E00084051F24AC40A0430D79ED1F05EB850566
:1003F0000C68AC4020431468206311E01068C06AA8
:100400000C790D3C04EB84051F24AC40A0430D790E
:100410000D3D05EB85050C68AC4020431468E06297
:1004200008680A2812D31068C0680C780A3C04EBEC
:1004300044050724AC40A0430D780A3D05EB450573
:100440008C68AC4020431468E0600FE010680069DD
:100450000C7804EB44050724AC40A0430D7805EB71
:1004600045058C68AC40204314682061086810285A
:1004700002D00868112827D1174C1068A0421ED15D
:100480001068806800F40000F0B91068806840F4DB
:1004900000001468A0600868102815D10F48006893
:1004A0000F4CB0FBF4F000EB80004000009002E045
:1004B0000098401E009000980028F9D104E0906A4E
:1004C00040F020009062012300BF002082F8240049
:1004D00000BF184661E7000000240140140000201E
:1004E00040420F000146886A704701460868C06CA8
:1004F000704700002DE9F041044600270025002642
:10050000A84614B90120BDE8F081A06810B1207D93
:1005100000B100BFA06A30B90020E06284F8240076
:10052000204600F089F82046FFF7AFFE0746A06A94
:1005300000F01000002873D1002F71D1A06A20F4C0
:10054000885040F00200A062E16960680843217BA6
:1005500040EA41000643A068B0F5807F02D0A06861
:10056000012802D14FF4807000E000200543207D77
:10057000012811D1207B38B9A069401E4FF40061D9
:1005800041EA4030054307E0A06A40F02000A06245
:10059000E06A40F00100E0622068406820F46940B1
:1005A000284321684860206880682149084030431A
:1005B00021688860A068B0F5807F02D0A06801281B
:1005C00002D14FF4807000E00020B0F5807F03D1AD
:1005D000208A401E4FEA00582068C06A20F470004C
:1005E00040EA08002168C862206880681149084014
:1005F000B04208D10020E062A06A20F0020040F082
:100600000100A06211E0A06A20F0020040F010009A
:10061000A062E06A40F00100E062012705E0FFE728
:10062000A06A40F01000A062012738466BE7000086
:10063000FDF7E1FFFE0E1FFF10B586B00446002057
:10064000029003900490059013492068884220D1BD
:1006500000BF1248806940F4007010498861084664
:10066000806900F40070019000BF00BF08468069F7
:1006700040F0040088610846806900F004000190A1
:1006800000BF022002900320039002A9044800F05A
:1006900075F906B010BD00000024014000100240B2
:1006A00000080140F8B504460D46002600200090E1
:1006B000002700F0F1FA06462068806800F4807098
:1006C00050B1A06A40F02000A06200BF002084F872
:1006D000240000BF0120F8BD2068406800F480704D
:1006E00020BB2068C06A00F47000F8B917E0681CED
:1006F000A8B125B100F0D0FA801BA8420FD920681C
:10070000006800F0020050B9A06A40F00400A06246
:1007100000BF002084F8240000BF0320DBE720682E
:10072000006800F002000028E1D053E0022000F051
:1007300079FB38490968B1FBF0F021680969364A4C
:10074000114091B92168C9689211114069B92168B5
:100750000969324A114031B92168C96892111140C2
:1007600009B9142117E0292115E0216809692B4AEC
:10077000114021B92168C9689211114041B1216825
:100780000969274A114029B92168C968114009B986
:10079000542100E0FC2100FB01F718E0681C98B12F
:1007A00025B100F079FA801BA8420DD90098B84213
:1007B0000AD2A06A40F00400A06200BF002084F8C2
:1007C000240000BF032086E70098401C009000989A
:1007D000B842E3D36FF0120021680860A06A40F4C9
:1007E0000070A0622068806800F46020B0F5602F7F
:1007F0000DD1207B58B9A06A20F48070A062A06A55
:1008000000F4805018B9A06A40F00100A0620020F6
:1008100061E7000014000020244992249224491228
:100820004992240070B50446002500BF94F82400C6
:10083000012801D1022070BD012084F8240000BFEE
:100840002046FFF751FD0546002D77D1A06A40F202
:100850000121884340F48070A0623C4920688842AE
:1008600008D13B48006800F4702008B9012002E07C
:10087000002000E0012078B1A06A20F48010A0627E
:100880002068406800F4806000B3A06A20F4005043
:1008900040F48050A06219E0A06A40F48010A06289
:1008A0002B49091F2068884203D0284920688842C4
:1008B00004D12748006800F4806000E0002028B1DF
:1008C000A06A20F4005040F48050A062A06A00F4B6
:1008D000805020B1E06A20F00600E06201E00020D4
:1008E000E06200BF002084F8240000BFC01E216821
:1008F00008602068806800F46020B0F5602F16D191
:1009000012492068884208D11148006800F470201C
:1009100008B9012002E0002000E0012038B1206881
:10092000806840F4A000216888600CE006E0206840
:10093000806840F480102168886004E000BF0020D7
:1009400084F8240000BF284675E700000028014015
:100950000424014070B5044600F09EF90646254681
:10096000681C10B104480078054400BF00F094F9F9
:10097000801BA842FAD370BD100000202DE9F84773
:100980000346002294466DE14FF0010808FA02F494
:10099000D1F8008008EA0400A0427DD1DFF8D8A297
:1009A000D1F80480A8EB0A09D0453AD014DCB8F19C
:1009B000030F50D009DCB8F1000F31D0B8F1010FAE
:1009C0001CD0B8F1020F49D120E0B8F1110F18D0B6
:1009D000B8F1120F42D11EE0B9F5881F25D006DC10
:1009E000B9F5803F20D0B9F5801F37D11AE0B9F5AD
:1009F000001F18D0B9F5041F30D117E0D1F80CC092
:100A00002DE0D1F80C8008F1040C28E0D1F80C801E
:100A100008F1080C23E0D1F80C8008F10C0C1EE062
:100A200000BF00BF00BF00BF00BF00BFD1F80880FB
:100A3000B8F1000F02D14FF0040C0BE0D1F80880A0
:100A4000B8F1010F03D14FF0080C1C6102E04FF028
:100A5000080C5C6103E04FF0000C00E000BF00BF39
:100A6000FF2801D8984601E003F104084646FF2814
:100A700002D84FEA820803E0A2F108084FEA88088A
:100A80004746D6F800804FF00F0909FA07F928EA1F
:100A900009080CFA07F900E087E048EA0908C6F8F7
:100AA0000080D1F8048008F08058B8F1805F7CD1D4
:100AB00000BFDFF8C881D8F8188048F00108DFF8D7
:100AC000BC91C9F81880C846D8F8188008F0010809
:100AD000CDF8008000BF4FEAB9384FEA920958F8C4
:100AE00029504FEA82784FEA18794FF00F0808FA38
:100AF00009F825EA0805DFF88881434502D14FF05F
:100B0000000816E0DFF87C81434502D14FF0010870
:100B10000FE0DFF87481434502D14FF0020808E08E
:100B2000DFF86881434502D14FF0030801E04FF040
:100B300004084FEA82794FEA197908FA09F848EA75
:100B40000505DFF84C814FEA920948F82950D1F8A1
:100B5000048008F48018B8F5801F0AD1DFF83481CA
:100B6000D8F8008048EA0008DFF82891C9F800802A
:100B700009E0DFF82081D8F8008028EA0008DFF8D3
:100B80001491C9F80080D1F8048008F40018B8F571
:100B9000001F10D1DFF8FC8008F10408D8F80080AD
:100BA00048EA0008DFF8EC9000E05AE009F1040997
:100BB000C9F800800DE0DFF8DC8008F10408D8F8FF
:100BC000008028EA0008DFF8CC9009F10409C9F890
:100BD0000080D1F8048008F40038B8F5003F0ED149
:100BE000DFF8B080A8F10408D8F8008048EA0008CF
:100BF000DFF8A090A9F10409C9F800800DE0DFF842
:100C00009480A8F10408D8F8008028EA0008DFF8EA
:100C10008490A9F10409C9F80080D1F8048008F48F
:100C20008038B8F5803F0ED1DFF86880A8F1080859
:100C3000D8F8008048EA0008DFF85890A9F10809C0
:100C4000C9F800800DE0DFF84C80A8F10808D8F85A
:100C5000008028EA0008DFF83C90A9F10809C9F8EB
:100C60000080521CD1F8008028FA02F8B8F1000F79
:100C70007FF48AAEBDE8F887000011100010024032
:100C800000080140000C0140001001400014014028
:100C90000800014008040140014800687047000056
:100CA0000800002003480068034909780844014906
:100CB00008607047080000201000002010B50848A8
:100CC000006840F0100006490860032000F096F824
:100CD0000F2000F007F800F02BF8002010BD0000F6
:100CE0000020024070B504460E4800784FF47A7137
:100CF000B1FBF0F00C490968B1FBF0F5284600F0B3
:100D0000E9FC08B1012070BD102C07D20022214659
:100D1000501E00F035F80548046001E00120F2E7BC
:100D20000020F0E710000020140000200C0000203C
:100D300008B500BF1048806940F001000E49886185
:100D40000846806900F00100009000BF00BF08461F
:100D5000C06940F08050C8610846C06900F080500A
:100D6000009000BF00BF0549486820F0E06040F0F7
:100D70000070486000BF08BD001002400000014044
:100D80002DE9F05F80460D461646002700F080FDF5
:100D9000074639462A46334601F00700C0F1070AE4
:100DA000BAF1040F02D94FF0040A01E0C0F1070ABA
:100DB000D14600F1040ABAF1070F02D24FF0000A3F
:100DC00001E0A0F1030AD4464FF0010A0AFA09FA39
:100DD000AAF1010A0AEA020A0AFA0CFA4FF0010B18
:100DE0000BFA0CFBABF1010B0BEA030B4AEA0B0409
:100DF0002146404600F038FDBDE8F09F00BF00F0FE
:100E00000702064B19684FF6FF031940044B0B43CA
:100E100043EA0221014B196000BF70470CED00E06E
:100E20000000FA052DE9F04706464FF000080025BE
:100E300000270024A146012E31D0022E56D0102EBC
:100E40005FD132484468006800F0807008B33048D1
:100E5000C4F38341475C04F4803078B12B48406888
:100E6000C0F340402B4911F8008004F4803040B1B9
:100E70002948B0FBF8F000FB07F502E0274807FB24
:100E800000F52248406800F48000B0F5800F01D1E1
:100E9000A94603E068000321B0FBF1F932E01B48EA
:100EA000046A04F44070B0F5807F05D104F00200BC
:100EB00010B14FF4004918E004F44070B0F5007F21
:100EC00007D11248406A00F0020010B149F64049CB
:100ED0000BE004F44070B0F5407F06D10B48006889
:100EE00000F4003008B14FF224490BE000F07AF929
:100EF00006494968C1F38131491C4900B0FBF1F949
:100F000000E000BF00BF4846BDE8F0870010024087
:100F10002A1E00083A1E000800127A0000093D004F
:100F2000F8B5044600260025207800F001000028CE
:100F30006AD000274248C06900F0805068B900BFFD
:100F40003F48C06940F080503D49C8610846C069CB
:100F500000F08050009000BF01273A48006800F47C
:100F60008070B0B93748006840F480703549086037
:100F7000FFF792FE064606E0FFF78EFE801B642810
:100F800001D90320F8BD2F48006800F480700028C4
:100F9000F2D02B48006A00F440752DB3A08800F40D
:100FA0004070A84220D02648006A20F440750120F5
:100FB00025490860002008602148056205F001000D
:100FC00090B1FFF769FE064608E0FFF765FE801B5B
:100FD00041F28831884201D90320D3E71848006ADA
:100FE00000F002000028F0D01548006A20F440709C
:100FF0006168084312490862012F04D10846C0699C
:1010000020F08050C86100BF207800F00200022864
:1010100007D10B48406820F44040A16808430849C4
:101020004860207800F01000102807D1044840687C
:1010300020F48000E1680843014948600020A1E7EE
:1010400000100240007000404004424270B5044667
:101050000D460CB9012070BD5A48006800F0070029
:10106000A8420ED25748006820F00700284355498F
:1010700008600846006800F00700A84201D001207F
:10108000E9E7207800F0020002281DD1207800F066
:101090000400042805D14C48406840F4E0604A4907
:1010A0004860207800F00800082805D146484068CC
:1010B00040F46050444948604348406820F0F000E4
:1010C000A168084340494860207800F0010078B3E7
:1010D0006068012806D13C48006800F4003090B9EF
:1010E0000120B8E76068022806D13748006800F0A0
:1010F000007040B90120AEE73348006800F00200FC
:1011000008B90120A7E73048406820F00300616873
:1011100008432D494860FFF7BFFD064609E0FFF789
:10112000BBFD801B41F28831884202D9032092E73F
:1011300007E02548406800F00C006168B0EB810FC3
:10114000EDD12048006800F00700A8420ED91D48E4
:10115000006820F0070028431A4908600846006824
:1011600000F00700A84201D0012074E7207800F0C9
:101170000400042807D11448406820F4E060E168C6
:10118000084311494860207800F00800082808D179
:101190000D48406820F46050216940EAC1000A49C6
:1011A000486000F02FF808494968C1F30311074A65
:1011B000515CC8400649086006480068FFF792FD88
:1011C000002048E700200240001002403C1E0008BA
:1011D000140000200C000020014800687047000047
:1011E0001400002000B5FFF7F7FF04494968C1F378
:1011F000C221034A515CC84000BD000000100240FB
:101200004C1E000870B5002100220024002300209D
:10121000134D696801F00C05EDB1042D02D0082DC5
:101220001AD101E00F4819E00F4DC1F38346AB5DC1
:1012300001F4803555B10A4D6D68C5F340450B4E3C
:10124000725D084D5D43B5FBF2F402E0084D03FB0F
:1012500005F4204602E000BF024800BF00BF70BD99
:101260000010024000127A00181E0008281E000814
:1012700000093D00F8B504460CB90120F8BD2078FE
:1012800000F00100002878D0F748406800F00C001A
:1012900004280CD0F448406800F00C00082811D154
:1012A000F148406800F48030B0F5803F0AD1EE4844
:1012B000006800F4003000285FD0606800285CD12E
:1012C0000120DBE700BF6068B0F5803F06D1E6484B
:1012D000006840F48030E449086028E0606858B94C
:1012E000E148006820F48030DF4908600846006863
:1012F00020F4802008601AE06068B0F5A02F0BD1C0
:10130000D948006840F48020D74908600846006842
:1013100040F4803008600AE0D348006820F4803050
:10132000D14908600846006820F48020086000BFAA
:10133000606888B1FFF7B0FC054606E0FFF7ACFC3B
:10134000401B642801D9032098E7C748006800F4CF
:1013500000300028F2D010E0FFF79EFC054606E0C2
:10136000FFF79AFC401B642801D9032086E7BE489A
:10137000006800F400300028F2D1207800F002006C
:10138000022857D1B848406800F00C0050B1B64868
:10139000406800F00C00082818D1B348406800F4F9
:1013A000803098B9B048006800F0020020B1206990
:1013B000012801D0012061E7AB48006820F0F80067
:1013C000616940EAC100A849086033E02069E8B1DA
:1013D0000120A6490860FFF75FFC054606E0FFF71D
:1013E0005BFC401B022801D9032047E79E480068A8
:1013F00000F002000028F2D09B48006820F0F800BE
:10140000616940EAC1009849086013E000209749EB
:101410000860FFF741FC054606E0FFF73DFC401B76
:10142000022801D9032029E78F48006800F0020054
:101430000028F2D1207800F0080008282DD1A069FA
:10144000B8B101208A490860FFF726FC054606E08E
:10145000FFF722FC401B022801D903200EE7824837
:10146000406A00F002000028F2D0012000F0E8F904
:1014700013E000207E490860FFF70EFC054606E0F9
:10148000FFF70AFC401B022801D90320F6E6764844
:10149000406A00F002000028F2D1207800F0040039
:1014A000042872D100277048C06900F0805068B9E4
:1014B00000BF6D48C06940F080506B49C861084664
:1014C000C06900F08050009000BF012769480068A3
:1014D00000F48070B0B96748006840F480706549D6
:1014E0000860FFF7D9FB054606E0FFF7D5FB401B78
:1014F000642801D90320C1E65E48006800F48070CA
:101500000028F2D000BFE068012806D15648006AE2
:1015100040F001005449086227E0E06858B9524899
:10152000006A20F00100504908620846006A20F075
:101530000400086219E0E06805280BD14A48006AF7
:1015400040F00400484908620846006A40F0010083
:1015500008620AE04448006A20F00100424908623B
:101560000846006A20F00400086200BFE068A0B1ED
:10157000FFF792FB054609E0FFF78EFB401B41F2A7
:101580008831884202D9032078E622E03648006A92
:1015900000F002000028EFD012E0FFF77DFB0546C7
:1015A00008E0FFF779FB401B41F28831884201D9FE
:1015B000032063E62C48006A00F002000028F0D106
:1015C000012F05D12848C06920F080502649C86104
:1015D00000BFE069C8B32448406800F00C00082848
:1015E0005FD0E069022847D1002020490866FFF754
:1015F00053FB054606E0FFF74FFB401B022801D9CD
:1016000003203BE61848006800F000700028F2D183
:10161000206AB0F5803F07D11348406820F40030BD
:10162000A168084310494860D4E9080108430E49FD
:10163000496821F4741108430B49486001200B49A3
:101640000866FFF729FB054607E03CE0FFF724FBAF
:10165000401B022801D9032010E60348006800F06F
:1016600000700028F2D02EE000100240000042423C
:101670008004424200700040002014490866FFF7D1
:101680000BFB054606E0FFF707FB401B022801D9CC
:101690000320F3E50E48006800F000700028F2D146
:1016A00011E0E069012800D1E8E50948466806F440
:1016B0008031206A814204D106F47011606A81424F
:1016C00001D00120DAE50020D8E500000000424208
:1016D0000010024070B504462546681EB0F1807FB8
:1016E00001D301200FE0681E4FF0E02148610F2177
:1016F0004FF0FF3000F0B8F800204FF0E021886193
:1017000007200861002070BD00BFFEE70EB5002075
:101710000090019002901148114908600021104882
:101720008160017301754FF46021C16100200C4993
:10173000486001210A480161FEF7DCFE08B1FEF7AE
:101740001EFE01200090019000200290694604488E
:10175000FEF718FE08B1FEF712FE0EBD0024014090
:101760001800002008B500BF0C48806940F0200038
:101770000A4988610846806900F02000009000BF97
:1017800000BF0846806940F004008861084680690F
:1017900000F00400009000BF08BD000000100240EF
:1017A00000BFFEE700BFFEE77047704710B5FFF7C8
:1017B00079FA10BD704700BFFEE700B593B028214D
:1017C00009A8FEF701FD142104A8FEF7FDFC002086
:1017D00000900190029003900120099000040A906B
:1017E00000200B9001200D9002201090C103119158
:1017F0004FF4E011129109A8FFF73CFD08B1FEF784
:10180000BEFD0F20049002200590002006904FF4AA
:101810008060079000200890022104A8FFF716FCC2
:1018200008B1FEF7ACFD02200090800302906846EC
:10183000FFF776FB08B1FEF7A2FD13B000BD000074
:1018400008B508490968C9084FF47A72B1FBF2F18A
:101850004143009100BF00BF00994A1E0092002939
:10186000F9D108BD1400002010B5002804DB0A07D8
:10187000130E054A135406E00A07140E034A00F03B
:101880000F031B1FD45410BD00E400E018ED00E06E
:1018900002480068C0F30220704700000CED00E031
:1018A000FFF70CFAFFF789FFFFF75CFFFFF72EFF4A
:1018B0002CE01748FEF7B6FF32211548FEF7F2FE7E
:1018C0001348FEF70FFE00F40070D8B11048FEF781
:1018D0000CFE104908800846008800F03FFA814657
:1018E0004FF08B4100F078F9044600F049F90746C3
:1018F0004FF06632084B00F045F8054600F010F84E
:10190000064908604FF4FA70FFF724F8D1E70000A9
:10191000180000200000002066660A400400002035
:1019200021F00042A2F16052B2F5801F01F00043A5
:1019300028BFD2F17F6C0BD95FEA001C43EAC202D8
:1019400042EB507018BF704728BF20F0010070476D
:10195000B2F5801FBCBF184670474FEA410C1CF51A
:10196000001F02D2084600F052BA70B500F0B4F879
:1019700000000089FFF7F6BF4FF00040A0F580009F
:1019800070470000DFF848C170B51CEA111E1EBF89
:101990001CEA13159EEA0C0F95EA0C0F00F06F80FD
:1019A00081EA030423EA4C134EEAD47E21EA4C1167
:1019B00041F4801143F48013AE44A1FB024CA0FB20
:1019C0000365AEF17F7E361955EB0C05A1FB034C88
:1019D0004CF10003A0FB021C16EB0C06654153F111
:1019E0000003094218BF46F0010613F4007F0BD133
:1019F0004FEA03314FEA0530340341EA155140EA1A
:101A000016506FF003020AE04FEAC3214FEAC520E7
:101A1000F40241EA555140EA56506FF0020202EBDF
:101A20002E4201EB025585EACE710AD05FEA440CE2
:101A300018BF24F0004450F1000041F1000120EAF9
:101A4000D47040F2FE7C624500D270BDA84214BF43
:101A50004FF080444FF04044002E08BF0024BEF1F8
:101A6000806FA8BFA1F1C041BDE8704080F28280C4
:101A70004FF0000001F1C04101F0004170479EEAC3
:101A80000C0F0CEA131518BF95EA0C0F06D04FF097
:101A9000000081EA030E0EF0004170BD00F01CF85A
:101AA0008900013E00F007B800F009B84FEA430C86
:101AB0005FEA5C5C08D081EA030100F05BB84FEAA2
:101AC000410C5FEA5C5CF6D14FF0000001497047C1
:101AD0000000FF070000F87F0EF1020E2EF0030E4B
:101AE0005EF8046B364205D4012A43EB030515F575
:101AF000001F12D8012841EB010C1CF5001F0CD867
:101B00000ED14FEAD17C15F5001F0CEB4C0C0CF1FB
:101B1000020C08BF4CEBD37C04E04FF0080C01E052
:101B20004FEAD37C0CEB4C0526FA05F606F00706C7
:101B3000B6F1040C06D20EEB860CBDE870404CF0FA
:101B4000010C6047DFE80CF0090B02024FF0004186
:101B50004FF00000A1F5002170BD19461046012884
:101B600051EB010418BFD4F5001484BF002001F02C
:101B7000004170BD0808A0F500114FEA310170471F
:101B800043004FEAD30C4FEA3C0C43401FBF4007D1
:101B90000CF1605113F0FE4F70471CF0006F03D141
:101BA00000200CF0004170470CF0004343EA5070F5
:101BB00010B540EACC0000F0E4F800BF000000924D
:101BC0004FEA0001FFF7D6BF4FF000414FF0000091
:101BD000A1F50021704700004FF47F0C1CEAD012E1
:101BE0001EBF1CEAD11392EA0C0F93EA0C0F00F00F
:101BF000858090EA010F48BF42F4807240F4000CE7
:101C000041F400002CF07F4120F07F4000B581427C
:101C1000A2EB03020FF2081CACEB504EC0F1000027
:101C20009EF800E04FEA4E0E00FB0EFC38BF490064
:101C30004FEA2C1C02F5FA020CFB0EF34FEACE1E03
:101C40004FEA112C4FEAC1210EEB635E42EB2242B8
:101C50000EFB0CFC4FEA1C5300FB03114FEA112C46
:101C60004FEA01310EFB0CFC4FEADC4C00FB0C117F
:101C7000C14228BF09184CEB03335DF804EB10EBAD
:101C8000410143EBC250B2F57C0F38BF704729D5F4
:101C900012F0F00F1CBF00F1C04000F00040704790
:101CA000008182838485868788898B8C8D8E8F9135
:101CB0009293959697999A9C9D9FA0A2A3A5A7A859
:101CC000AAACAEB0B2B3B5B7B9BCBEC0C2C5C7C985
:101CD000CCCED1D4D7D9DCDFE2E6E9ECF0F3F7FAE9
:101CE000FE0000004FEA400C0CF1807CBCF17E4FFE
:101CF00028BF7047B0F1C04000F089B890EA010FEA
:101D00000CEAD11348BF42F48072624538BF634584
:101D100007D213F47F0F16D080EA010000F00040D4
:101D2000704710B500F02DF8097EFC3E00F005B8B4
:101D300080EA010000F00040704780EA010000F0F6
:101D4000004000F064B812F47F0F04BF02487047EF
:101D500080EA010000F05BB80000C07FB0FA80F3B9
:101D600010FA03F2C3F19D030AD0D90501EB12204A
:101D7000530638BF704700F1010008BF20F0010092
:101D800070470EF1020E2EF0030E5EF8044B244253
:101D900004D44FEA4102B2F17F4F11D84FEA400319
:101DA000B3F17F4F0CD80ED14FEAD07CB2F17F4F08
:101DB0000CEB4C0C0CF1020C08BF4CEBD17C04E09A
:101DC0004FF0080C01E04FEAD17C0CEB4C0324FAF5
:101DD00003F404F00704B4F1040C06D20EEB840CF7
:101DE000BDE810404CF0010C6047DFE80CF007083C
:101DF00002024FF00040A0F5800010BD08464200EE
:101E000018BFD2F1807288BF00F0004010BDFF21E2
:101E100041EAD050C00570470203040506070809CF
:101E20000A0B0C0D0E0F1010010202030405060729
:101E300008090A0B0C0D0E0F101001020000000023
:101E4000000000000102030406070809000000006A
:101E500001020304741E00080000002018000000A6
:101E6000280100088C1E00081800002090060000C1
:101E70004401000800000000000000000000000015
:0C1E800010000000010000000024F4002D
:04000005080000ED02
:00000001FF
